:020000040800F2
:10000000900B0020C5010008A93100085129000803
:10001000ED2D0008A30700080537000800000000C8
:10002000000000000000000000000000EB310008AC
:10003000BF09000800000000E9310008453200084F
:10004000DF010008DF010008DF010008DF01000810
:10005000DF010008DF010008DF010008DF01000800
:10006000DF010008DF010008DF010008DF010008F0
:10007000DF010008DF010008DF010008DF010008E0
:10008000DF010008B5080008DF010008B907000813
:10009000A9070008DF010008DF010008DF010008F0
:1000A000DF010008DF010008DF010008DF010008B0
:1000B000DF010008DF010008DF010008DF010008A0
:1000C000DF010008DF010008DF010008DF01000890
:1000D000DF010008E5360008F5360008DF010008FA
:1000E000DF010008DF010008DF010008DF01000870
:1000F000DF010008DF010008DF010008DF01000860
:10010000DF010008DF010008DF010008DF0100084F
:10011000DF010008DF010008DF010008DF0100083F
:10012000DF010008DF010008C5080008DF01000842
:10013000DF010008DF010008DF010008D90700081F
:10014000C9070008DF010008DF010008DF0100081F
:10015000DF010008DF010008DF010008DF010008FF
:10016000DF010008DF010008DF010008DF010008EF
:10017000DF010008DF010008DF01000800000000C7
:10018000DF010008DF010008DF010008DF010008CF
:10019000DF010008DF010008DF010008DF010008BF
:1001A0000000000000000000DF010008DFF810D0B0
:1001B00000F076FA0048004735410008AFF30080B0
:1001C000900B00200648804706480047FEE7FEE700
:1001D000FEE7FEE7FEE7FEE7FEE7FEE7FEE7FEE7F7
:1001E00001330008AD0100082DE9F05F054600204D
:1001F00092469B4688460646814640241BE0284698
:1002000041464746224600F09AF853465A46C01ADD
:10021000914110D311461846224600F081F82D1A5C
:1002200067EB01084F4622460120002100F078F8D4
:1002300017EB00094E41201EA4F10104DFDC484603
:1002400031462A464346BDE8F09FD2B201E000F8AD
:10025000012B491EFBD270470022F6E710B513466A
:100260000A4604461946FFF7F0FF204610BD00F08D
:10027000004230F000400AD0C10D01F56071C0F3BA
:10028000160042EA0151C20840071143704700209E
:100290000146704730B5041E71F1000404DB4FF0D5
:1002A0000044404264EB0101141E73F1000405DBBD
:1002B0001C464FF00043524263EB04038B4208BFDD
:1002C000824230BD30B5041E71F1000404DB4FF0F2
:1002D0000044404264EB0101141E73F1000405DB8D
:1002E0001C464FF00043524263EB0403994208BF9F
:1002F000904230BD30B50B4601460020202201243B
:1003000009E021FA02F59D4205D303FA02F5491BE3
:1003100004FA02F52844151EA2F10102F1DC30BDF9
:10032000202A04DB203A00FA02F1002070479140B5
:10033000C2F1200320FA03F3194390407047202AAA
:1003400004DB203A21FA02F00021704721FA02F37F
:10035000D040C2F1200291400843194670472DE970
:10036000FE4F804681EA0300C00F0C46009021F04A
:10037000004123F00045B8EB0200A94105D24046F8
:10038000214690461C460B46024623F0004010438F
:1003900047D0270DC7F30A00C3F30A510290401A51
:1003A000019040286BDAC3F3130040F4801B0098DF
:1003B000924620B10023D2EB030A63EB0B0B0198AA
:1003C0005946C0F140025046FFF7AAFF06460D46C7
:1003D00050465946019A00F075F910EB080061414A
:1003E000002487EA115284EAE7731A4340D0009A46
:1003F00062B3019A012A4FEA075215DC001B61EB38
:1004000002014FF0004202EA0752CDE90042001C0F
:1004100041F5801132462B4600F075F903B0BDE876
:10042000F08F40462146F9E7001B61EB0201001CFA
:1004300041F5801300185B412018A2F5001747EB27
:10044000030140EAD570B6196D4111E06D084FEA1D
:10045000360645EAC0754FEA0752001B61EB020100
:10046000001C41F5801149084FEA30000019514144
:1004700032462B4603B0BDE8F04F00F035B9009886
:10048000012240000023D0EB020263EBE0730098EE
:1004900021464FEAE074B8EB000061EB0401E9E7A4
:1004A00083F000435BE781F0004158E72DE9FE4F00
:1004B00081EA030404F0004421F0004100944FF06D
:1004C000000B23F0004350EA01045ED052EA03041B
:1004D0005BD0C3F30A54C1F30A552C44A4F2F3349D
:1004E0000194A0FB0254C1F3130141F48011C3F342
:1004F000130343F4801301FB024400FB034E840A00
:10050000970A44EA815447EA8357A4FB0768029597
:100510008D0A05FB07854FEA932C04FB0C54270535
:10052000029D4FEA065847EA1637B5EB08056EEB11
:10053000070C870E920E47EA811742EA8312A7FB47
:100540000201B6EB0B0164EB00042B0D43EA0C3304
:100550005E1844EB1C50DA465146E7FB0201C5F336
:1005600013044FEA0B3343EA14534FEA0432019C5D
:1005700043EA0603A4F10C040294009CCDE900B404
:1005800000F0C1F803B0BDE8F08F00200146F9E7A4
:100590002DE9F04D81EA030404F0004B21F0004501
:1005A00014464FF0000A23F0004150EA050220D023
:1005B00054EA01021DD0C5F30A570246C5F31303DE
:1005C000C1F31300C1F30A5640F4801543F48013BD
:1005D000A7EB0608101BD64608F2FD3873EB0500A2
:1005E00002D308F1010801E092185B41B8F1000F55
:1005F00003DA00200146BDE8F08D00204FF48011A1
:10060000064684460EE0171B73EB050705D3121B45
:1006100063EB050306434CEA010C49084FEA30003E
:1006200092185B4150EA0107EDD152EA030012D063
:1006300082EA040083EA0501084305D0101BAB41A0
:1006400006D20122002306E000224FF0004302E020
:100650006FF0010253101AEB06004CEB085110EB3F
:100660000A0041EB0B01BDE8F04D00F03DB8C1F3CD
:100670000A52C1F3130140F2FF3341F480119A4250
:1006800002DA00200146704740F233439A42A2F258
:10069000334202DC5242FFF752BEFFF741BE000078
:1006A000064C074D06E0E06840F0010394E80700BF
:1006B00098471034AC42F6D3FFF77CFDF0430008B6
:1006C00010440008202A06DBCB17203A41FA02F03A
:1006D00043EAE07306E041FA02F3D040C2F120029F
:1006E000914008431946704710B5141E73F1000479
:1006F00008DA401C41F1000192185B411A4301D114
:1007000020F0010010BD2DE9F04D92469B4611B13D
:10071000B1FA81F202E0B0FA80F220329046FFF79F
:10072000FFFD04460F4640EA0A0041EA0B0153462A
:100730005A46084313D0114653EA010019D0C8F1B4
:1007400040025046FFF7FBFD05460E46504659460F
:100750004246FFF7E5FD084305D0012004E02046AE
:100760003946BDE8F08D0020054346EAE0762C438B
:1007700037430A986305E40AA0EB08000022FD0A4B
:1007800044EA47540A3002D500200146E9E7010552
:1007900010196941DDE9084500196941BDE8F04DCE
:1007A000A2E700BFFEE7000010B5024800F0E5FA3E
:1007B00010BD00005400002010B5024800F0DDFA22
:1007C00010BD00005400002010B5024800F0D5FA1A
:1007D00010BD00007C00002010B5024800F0CDFAEA
:1007E00010BD00007C0000200A784B7842EA03220A
:1007F000C2F30A0202800288A2F5806212B202806D
:100800004A78D2108B7842EA4312C2F30A0242803D
:100810004288A2F5806212B242808A789211CB7827
:1008200042EA83020B7942EA8322C2F30A028280FF
:100830008288A2F5806212B282800A7952104B79C6
:1008400042EAC312C2F30A02C280C288A2F58062E1
:1008500012B2C2800A7C4B7C42EA0322C2F30A0233
:1008600002810289A2F5806212B202814A791211D4
:10087000920882724A79C2F30112C2728A79CB79E4
:1008800042EA032212B282810A7A4B7A42EA0322B6
:1008900013B2C3818A7ACB7A42EA032213B203826B
:1008A0000B7B83744B7BC3748A7BCB7B42EA032232
:1008B0008282704710B5024800F0C6FD10BD0000EE
:1008C0009401002010B5024800F0BEFD10BD0000EC
:1008D0003401002001680A4BCAB2103AA3FB02326D
:1008E0001209084B9B5CC365032A04D96FF3090105
:1008F000091D816502E06FF309018165806D704714
:10090000ABAAAAAAE8430008014600208A6A8B69BC
:10091000002B0FD0B3F5005F1DD08AB3012A30D071
:10092000022A2ED0032A04D1C96A11F0807F00D098
:10093000012070471AB1012A07D0022AF9D1C96AE9
:1009400011F0807FF5D001207047C96AB1F1C07FF6
:10095000FAD1012070475AB1012A0BD0022A07D0E0
:10096000032AF7D1C96AB1F1C07FF3D101207047E2
:1009700001207047C96A11F0807FFAD001207047CA
:10098000FFE70120704710B4D0F800C0DCF8004049
:1009900024F48024CCF80040D0F800C0CCF8043017
:1009A0008368402B05D0036899600068C26010BC62
:1009B000704703689A600068C16010BC7047704758
:1009C00072B600BFFEE790F82020012A07D0022A65
:1009D00005D0416A41F480214162012070470068DE
:1009E0004269114341610020704770B490F8204083
:1009F000D0F800C0DCF808C0012C08D0022C06D0CA
:100A0000416A41F48021416270BC012070470CF0C2
:100A100080640CF000652C4302D11CF0805F55D03F
:100A2000CCF3016C012404FA0CF41C608B684FF4C5
:100A3000C0749BB1CD6804EB0C162B434D6843EAA0
:100A4000C5030568AB514FF4C273066803EB0C1382
:100A50000D69F550097D012909D00DE00D88CB689D
:100A600004EB0C1643EA45530568AB51EBE701680C
:100A7000CD5845F48075CD501179D379557941EA37
:100A8000036193791B0443EA052319434FF4C675A8
:100A9000036805EB0C1559511178D37841EA0361CD
:100AA000937852781B0443EA022211434FF4C47333
:100AB000026803EB0C13D150016804EB0C100A58C8
:100AC00042F001020A5070BC00207047416A41F4B4
:100AD0000011416270BC01207047000090F8202096
:100AE000012A07D0022A05D0416A41F480214162DF
:100AF000012070474248D0F8002242F00102C0F8BD
:100B00000022D0F8002222F47C52C0F80022D0F853
:100B100000224B6A42EA0322C0F800220A7D012328
:100B200002F01F0203FA02F2D0F81C329343C0F81D
:100B30001C32CB69D3B9D0F80C329343C0F80C32D5
:100B4000B1F80CC04B686CF31F43D1F814C000EB34
:100B5000CC0CCCF84032B1F808C00B686CF31F43E2
:100B6000D1F814C000EBCC0CCCF84432CB69012B8B
:100B70001AD1D0F80C321343C0F80C32B1F800C0CF
:100B80004B686CF31F43D1F814C000EBCC0CCCF8CD
:100B90004032B1F808C0CB686CF31F43D1F814C0E1
:100BA00000EBCC0CCCF844328B697BB1D0F804322A
:100BB0001343C0F804320B6973B1D0F814321343F5
:100BC000C0F81432096A01290CD010E0D0F80432C0
:100BD0009343C0F80432EEE7D0F814329343C0F8E0
:100BE0001432EFE7D0F81C121143C0F81C12D0F8F1
:100BF000001221F00101C0F800120020704700002F
:100C000000640040704730B490F820C0BCF1010F80
:100C100009D0BCF1020F06D0416A41F48021416243
:100C200030BC0120704739B1D0F800C0DCF810C0EA
:100C30001CF0030F33D006E0D0F800C0DCF80CC085
:100C40001CF0030F24D04FF4D87C04680CEB011C7B
:100C500054F80C4004F0040494603CB3046854F865
:100C60000C40E4085460046854F80CC00CF0020C0A
:100C7000C2F80CC04FF4DA7C04680CEB011C54F889
:100C80000C5005F00F05082D16D30824146118E048
:100C9000416A41F40011416230BC01207047416A51
:100CA00041F40011416230BC01207047046854F8DF
:100CB0000C40640D1460D6E754F80C4004F00F04A7
:100CC0001461046854F80C40C4F307249461046868
:100CD00054F80CC04FEA1C4CC2F814C04FF4DC723C
:100CE000D0F800C002EB01125CF802C083F800C02B
:100CF000D0F800C05CF802C04FEA1C2C83F801C099
:100D0000D0F800C05CF802C04FEA1C4C83F802C067
:100D1000D0F800C05CF80220120EDA704FF4DE72D8
:100D2000D0F800C002EB01125CF802C083F804C0E6
:100D3000D0F800C05CF802C04FEA1C2C83F805C054
:100D4000D0F800C05CF802C04FEA1C4C83F806C023
:100D5000D0F800C05CF80220120EDA7139B10068D8
:100D6000016941F02001016130BC0020704700683A
:100D7000C16841F02001C160F6E72DE9F05F05464A
:100D8000002428684669D0F804908768D0F80CA041
:100D9000D0F810B0D0F8188016F0010F54D017F02A
:100DA000010F17D00121816017F0020F03D02846F0
:100DB00000F0E0FA0EE017F0040F02D04FF40064E8
:100DC00008E017F0080F02D04FF4805402E02846E4
:100DD00000F0CFFA17F4807F19D029684FF48070A3
:100DE000886017F4007F03D0284600F0C5FA0EE0B3
:100DF00017F4806F02D044F4005408E017F4006F39
:100E000002D044F4804402E0284600F0B4FA17F41B
:100E1000803F19D029684FF48030886017F4003F74
:100E200003D0284600F0AAFA0EE017F4802F02D073
:100E300044F4004408E017F4002F02D044F4803456
:100E400002E0284600F099FA16F0080F07D01AF0D1
:100E5000100F04D044F4007429681020C86016F004
:100E6000040F4FF0080707D01AF0080F04D02868C5
:100E7000C760284600F012FA16F0020F07D0286863
:100E8000C06810F0030F02D0284600F009FA16F0EF
:100E9000400F07D01BF0100F04D044F48064296881
:100EA0001020086116F0200F07D01BF0080F04D0A7
:100EB00028680761284600F027FA16F0100F07D0BF
:100EC0002868006910F0030F02D0284600F01DFAD0
:100ED00016F4003F08D019F0100F05D02968102033
:100EE0004860284600F012FA16F4803F07D019F047
:100EF000080F04D028684760284600F040FA16F42E
:100F0000004F4AD019F0040F44D016F4807F04D06B
:100F100018F0010F01D044F0010416F4007F04D052
:100F200018F0020F01D044F0020416F4806F04D0D0
:100F300018F0040F01D044F0040416F4006F29D017
:100F400018F0700F26D008F07000402815D006DC8D
:100F5000102809D020280AD0302816D10AE05028BD
:100F60000ED0602811D10EE044F008040DE044F0EA
:100F700010040AE044F0200407E044F0400404E0D8
:100F800044F0800401E044F480742868816921F011
:100F900070018161296804204860002C05D0686ACE
:100FA000204368622846FFF72DFEBDE8F09F70B52C
:100FB0000446002C03D094F8200010B104E0012076
:100FC00070BD204600F0A8F82068016841F00101DA
:100FD000016000F013FD0546206840684FF00506EB
:100FE00010F0010F11D100F009FD401B0A2807D9AC
:100FF000606A40F40030606284F82060012070BDB7
:101000002068406810F0010FEDD02068016821F0E1
:101010000201016000F0F2FC05462068406810F013
:10102000020F11D000F0EAFC401B0A2807D9606AC1
:1010300040F40030606284F82060012070BD2068B8
:10104000406810F0020FEDD1207E01283FD02068CB
:10105000016821F080010160607E01283DD0206898
:10106000016821F040010160A07E01283BD020688A
:10107000016821F020010160E07E012839D020685C
:10108000016841F010010160207F012837D02068FD
:10109000016821F008010160607F012835D02068D7
:1010A000016821F004010160E168A06862690843F9
:1010B0002169114308436168491E08432168C861DA
:1010C00000206062012084F82000002070BD2068AC
:1010D000016841F080010160BEE72068016841F0CD
:1010E00040010160C0E72068016841F02001016013
:1010F000C2E72068016821F010010160C4E72068A0
:10110000016841F008010160C6E72068016841F00C
:1011100004010160C8E7000010B586B00446142140
:1011200001A8FFF799F857492068884249D15648E5
:101130000068401C544908600846006801280FD127
:1011400000BF002000905148006840F000704F49F7
:1011500008600846006800F00070009000BF00BF03
:1011600000BF0020009049481038006840F0080097
:101170004649103908600846006800F008000090F1
:1011800000BF00BF032001900220029000200390C6
:10119000032004900920059001A93D4800F0FAFAC7
:1011A00000221146132000F0A5FC132000F094FC4F
:1011B00000221146142000F09DFC142000F08CFC4D
:1011C0005DE034492068884259D100BF002000907A
:1011D0002E48006840F080602C490860084600688E
:1011E00000F08060009000BF00BF27480068401CEE
:1011F000254908600846006801280FD100BF00207B
:1012000000902248006840F00070204908600846BD
:10121000006800F00070009000BF00BF00BF002019
:1012200000901A481038006840F002001749103941
:1012300008600846006800F00200009000BF00BF90
:101240004FF44050019002200290002003900320B0
:1012500004900920059001A90F4800F09BFA002294
:1012600011463F2000F046FC3F2000F035FC0022F4
:101270001146402000F03EFC402000F02DFC06B05E
:1012800010BD000000640040100000204038024003
:10129000000C02400068004000040240704700005B
:1012A00010B58AB0044601AB03AA00212046FFF71F
:1012B000AAFC114884420DD10398401E0F490870C2
:1012C000097801EB81010E4A02EB810001A901F0CE
:1012D00037FF0FE00B4884420CD10398801D07496B
:1012E0000870097801EB8101054A02EB810001A930
:1012F00001F026FF0AB010BD54000020200000209D
:10130000F40100207C00002070477047704770B5E2
:10131000044694F82000012805D0606A40F40020BB
:101320006062012070BD022084F8200020680168FE
:1013300021F00101016000F061FB05462068406872
:1013400010F0010F12D000F059FB401B0A2808D9F9
:10135000606A40F400306062052084F820000120BB
:1013600070BD2068406810F0010FECD10020606271
:1013700070BD70477047704770477047704770473F
:101380002DE9F0410446A66D00F038FB054694F8BF
:1013900035000027022806D08020606584F834706C
:1013A0000120BDE8F0812068016821F0160101608C
:1013B0002068416921F080014161206C08B9A06C6E
:1013C00020B12068016821F00801016020680168EF
:1013D00021F0010101602068006810F0010F12D0B7
:1013E00000F00CFB401B052808D920206065032075
:1013F00084F8350084F83470BDE8F0812068006816
:1014000010F0010FECD194F85C003F2101FA00F0DC
:10141000B060012084F8350084F834700020BDE805
:10142000F08190F83510022903D080214165012018
:101430007047052180F835100068016821F001012E
:1014400001600020704700002DE9F84304464FF08A
:101450000008CDF8008076484FF416510068B0FBC4
:10146000F1F7A56D2E6894F85C00082101FA00F0F0
:10147000304211D02068026812F0040F0CD00268CC
:1014800022F00402026094F85C0001FA00F0A86007
:10149000606D40F00100606594F85C004FF0010958
:1014A00009FA00F0304209D02168496911F0800F33
:1014B00004D0A860606D40F00200606594F85C1094
:1014C00004208840304209D02168096811F0020FD9
:1014D00004D0A860606D40F00400606594F85C1072
:1014E00010208840304224D02168096811F0080F8C
:1014F0001FD0A8602068016811F4802F0DD000680B
:1015000010F4002F04D0A16C99B12046884710E058
:10151000216C71B1204688470BE0016811F4807F8F
:1015200003D1016821F008010160216C09B1204656
:10153000884794F85C1020208840304251D02168C0
:10154000096811F0100F4CD0A86094F835000528F8
:101550000DD02068016811F4802F32D0006810F49B
:10156000002F29D0E16B59B32046884739E0206825
:10157000016821F0160101602068416921F08001B5
:101580004161206C08B9A06C20B12068016821F08D
:101590000801016094F85C003F2101FA00F0A860A6
:1015A00084F8359084F83480216D00293ED001B054
:1015B0002046BDE8F0430847616C09B120468847E2
:1015C0000FE0016811F4807F07D1016821F010015C
:1015D000016084F8359084F83480E16B09B12046CD
:1015E0008847606D002821D0606D10F0010F15D084
:1015F000052084F835002068016821F001010160B0
:101600000098401C0090B84204D82068006810F090
:10161000010FF5D184F8359084F83480E16C00290D
:1016200004D001B02046BDE8F0430847BDE8F88388
:10163000140000202DE9F041044600F0DFF90546D2
:10164000DCB1022084F83500002684F8346020687C
:10165000016821F0010101602068006810F0010FAD
:1016600013D000F0CBF9401B052809D92020606574
:10167000032084F83500BDE8F0810120BDE8F08149
:101680002068006810F0010FEBD121680868234A38
:101690001040A3686268D4F810C01A43E36843EAB4
:1016A0000C031A4363691A43A3691A43E3691A4393
:1016B000236A1A431043626A042A03D1236BE26A45
:1016C0001A43104308602068406920F00701606AEF
:1016D00040EA0105012704280ED1A06A0543E06A0B
:1016E00050B12046FFF710F930B14020606584F812
:1016F00035700120BDE8F081206845612046FFF784
:10170000E9F894F85C103F2202FA01F18160666505
:1017100084F835700020BDE8F08100003F8010F0B3
:1017200070B50446002594F8340001280DD001203E
:1017300084F8340094F835C00020BCF1010F06D0C5
:1017400084F834000225284670BD022070BD4FF099
:10175000020C84F835C060652046FFF714F9206854
:10176000016841F001010160EDE7000070B5044639
:1017700000F044F90546B4F1FF3F02D00448007878
:10178000044400F03BF9401BA042FAD370BD0000B6
:10179000440000202DE9F84F0022DFF82C92DFF8FA
:1017A0002CE2DFF82CA24FF0010B03274FF00F08BB
:1017B0000BFA02FC0B6803EA0C0363457AD10C793F
:1017C00004F00304012C01D0022C14D185685400CC
:1017D00007FA04F6B543CE6806FA04F42C43846095
:1017E000446824EA0C0C0C79C4F30014944044EAD5
:1017F0000C0CC0F804C0D1F804C037EA0C0C0CD0B3
:10180000C4684FEA420C07FA0CF5AC438D6805FA40
:101810000CFC4CEA040CC0F80CC091F804C00CF0AD
:10182000030CBCF1020F12D14FEAD20C00EB8C0476
:10183000256A4FEA427C4FEADC6C08FA0CF6B543A5
:101840000E6906FA0CFC4CEA050CC4F820C00468CA
:101850004FEA420C07FA0CF5AC430D7905F003058D
:1018600005FA0CFC4CEA040CC0F800C0D1F804C026
:101870001CF4403F1ED0D9F800C04CF4804CC9F88D
:1018800000C0D9F800C00CF4804CCDF800C022F0A4
:10189000030C0CF1804505F59835D5F808C8940778
:1018A000240F08FA04F62CEA0606704503D14FF01F
:1018B000000C2FE067E0A0F1804CBCF5013C68D043
:1018C000A0F1804CBCF5023C66D0A0F1804CBCF588
:1018D000033C64D0A0F1804CBCF5043C62D0A0F184
:1018E000804CBCF5053C60D0A0F1804CBCF5063CBA
:1018F0005ED0A0F1804CBCF5073C5CD0A0F1804CE0
:10190000BCF5083C5AD0A0F1804CBCF5093C58D03D
:101910004FF00A0C0CFA04FC4CEA060CC5F808C897
:10192000DAF800C02CEA030C4C6814F4801F01D0D4
:101930004CEA030CCAF800C0264CD4F800C02CEACC
:10194000030C4D6815F4001F01D04CEA030CC4F8D9
:1019500000C0214CD4F800C02CEA030C4D6815F4EB
:10196000003F01D04CEA030CC4F800C01B4CD4F873
:1019700000C02CEA030C4D6815F4803F01D04CEAFE
:10198000030CC4F800C0521C102AFFF411AFBDE8CC
:10199000F88F4FF0010CBDE74FF0020CBAE74FF0A3
:1019A000030CB7E74FF0040CB4E74FF0050CB1E7B8
:1019B0004FF0060CAEE74FF0070CABE74FF0080C0A
:1019C000A8E74FF0090CA5E74438024000000240A8
:1019D000083C01400C3C0140043C0140003C0140FB
:1019E0000069084201D00120704700207047002A9A
:1019F00001D08161704709048161704701488068A6
:101A000070470000440000200248816802781144B9
:101A1000816070474400002010B50B48016841F414
:101A200000710160016841F480610160016841F466
:101A300080710160032000F091F8002000F006F8AA
:101A400000F026F8002010BD003C024070B50446AE
:101A50000D4D4FF47A712878B1FBF0F00B4909680D
:101A6000B1FBF0F000F0EAFB08B1012070BD102CD2
:101A700007D200222146501E00F03CF86C60002086
:101A800070BD012070BD0000440000201400002043
:101A900008B500BF002000900E48006840F4804068
:101AA0000C4908600846006800F48040009000BFC0
:101AB00000BF00BF00200090081F006840F0805069
:101AC000091F08600846006800F08050009000BFC1
:101AD00000BF08BD4438024000280ADB00F01F01A7
:101AE000012202FA01F14009800000F1E020C0F873
:101AF0000011704710B4184B1B68C3F30223C3F1E5
:101B0000070CBCF1040F01D94FF0040C1C1D072C6D
:101B100001D2002300E0DB1E012404FA0CFCACF12E
:101B2000010C0CEA0101994004FA03F35B1E1A4010
:101B30001143002806DB00F1E020090180F80014C1
:101B400010BC704700F00F0000F1E020090180F8A0
:101B5000141D10BC704700000CED00E000F0070001
:101B6000064A11684FF6FF03194041EA002040F091
:101B7000FD7040F080601060704700000CED00E0E8
:101B80002DE9F04704460D46002C13D0DFF85491A0
:101B9000D9F80000EFB200F00F00A8420DD289F88A
:101BA0000070D9F8000000F00F00A84205D0012015
:101BB000BDE8F0870120BDE8F08720684A4E10F0AC
:101BC000020F14D010F0040F03D0306840F4E0503E
:101BD0003060207810F0080F03D0306840F4604087
:101BE00030603068A16820F0F00008433060207851
:101BF00010F0010F3ED060683C49012808D002284F
:101C00000DD003280BD0096811F0020F28D00AE08C
:101C1000096811F4003F06D10120BDE8F08709688A
:101C200011F0007F19D0316821F0030108433060C2
:101C3000FFF7E4FE80463068616800F00C00B0EB0E
:101C4000810F17D041F2883AFFF7D8FEA0EB0800C9
:101C5000504508D90320BDE8F0870120BDE8F08792
:101C60000120BDE8F0873068616800F00C00B0EB3F
:101C7000810FE9D1D9F8000000F00F00A8420AD97D
:101C800089F80070D9F8000000F00F00A84202D0D7
:101C90000120BDE8F087207810F0040F05D03068EF
:101CA000E16820F4E05008433060207810F0080F1D
:101CB00006D03068216920F4604040EAC1003060FD
:101CC00000F042F831680A4AC1F30311515CC84080
:101CD0000849086008480068FFF7B8FE0020BDE822
:101CE000F0870000003C0240083802400038024003
:101CF000D04300081400002048000020014800687C
:101D0000704700001400002000B5FFF7F7FF0449FA
:101D10000968044AC1F38221515CC84000BD00003B
:101D200008380240E043000800B5FFF7E7FF044928
:101D30000968044AC1F34231515CC84000BD00004B
:101D400008380240E043000810B51748006810F05A
:101D50000C01164816D0164B042912D0082911D1AF
:101D6000144C216801F03F02216811F4800F0AD061
:101D70002068C0F38810A0FB03010023FEF734FAAB
:101D800009E0184610BD21680023C1F38811A1FBAA
:101D90000001FEF729FA2168C1F30141491C4900FD
:101DA000B0FBF1F010BD0000083802400024F40040
:101DB000001BB700043802402DE9F84F0446002C00
:101DC00012D02078FB4E10F0010FA6F1040563D06D
:101DD000301D016801F00C0104290CD0006800F0EE
:101DE0000C00082803D010E00120BDE8F88F30680F
:101DF00010F4800F09D0286810F4003F4CD06068C0
:101E0000002849D10120BDE8F88F6068B0F5803F17
:101E100014D0B0F5A02F16D0286820F480302860A8
:101E2000286820F480202860606810B3FFF7E6FD82
:101E30000746286810F4003F0ED02DE0286840F4D3
:101E400080302860F0E7286840F480202860286807
:101E500040F480302860E7E7FFF7D0FDC01B64281E
:101E600002D90320BDE8F88F286810F4003FF3D0B2
:101E700012E0FFF7C3FD0746286810F4003F0BD0BF
:101E8000FFF7BCFDC01B642802D90320BDE8F88F12
:101E9000286810F4003FF3D12078C74F10F0020FEC
:101EA0004FF0000957D0C548016811F00C0F14D04D
:101EB000006800F00C00082803D1306810F4800F8F
:101EC0000BD0E06880B301203860FFF797FD8046B3
:101ED000286810F0020F12D01EE0286810F0020FE0
:101EE00005D0E068012802D00120BDE8F88F2868FD
:101EF000216920F0F80040EAC10028602BE0FFF7DC
:101F00007DFDA0EB0800022802D90320BDE8F88F70
:101F1000286810F0020FF2D02868216920F0F8003C
:101F200040EAC100286016E0FFE7C7F80090FFF71D
:101F300065FD8046286810F0020F0CD0FFF75EFDAB
:101F4000A0EB0800022802D90320BDE8F88F28681A
:101F500010F0020FF2D1207810F0080F35D0984819
:101F6000DFF860A26169C1B101210160FFF746FDA0
:101F70008046DAF8000010F0020F26D1FFF73EFD90
:101F8000A0EB0800022802D90320BDE8F88FDAF898
:101F9000000010F0020FF1D017E0C0F80090FFF73A
:101FA0002DFD8046DAF8000010F0020F0DD0FFF78B
:101FB00025FDA0EB0800022802D90320BDE8F88F18
:101FC000DAF8000010F0020FF1D1207810F0040FC1
:101FD00071D04FF000087C48006810F0805F0AD193
:101FE0007948016841F080510160006800F080503C
:101FF00000904FF00108DFF8D4B1DBF8000010F4D6
:10200000807F1BD1DBF8000040F48070CBF800002B
:10201000FFF7F4FC8246DBF8000010F4807F0DD15E
:10202000FFF7ECFCA0EB0A00022802D90320BDE870
:10203000F88FDBF8000010F4807FF1D0A068DFF8A3
:1020400090B1012818D005281DD0DBF8000020F041
:102050000100CBF80000DBF8000020F00400CBF812
:102060000000A06840B3FFF7C9FC8246DBF800001F
:1020700010F0020F14D03EE0DBF8000040F0010049
:10208000CBF80000EDE7DBF8000040F00400CBF8EF
:102090000000DBF8000040F00100CBF80000E0E7B2
:1020A000FFF7ACFCA0EB0A0141F28830814204D971
:1020B0000320BDE8F88F26E005E0DBF8000010F013
:1020C000020FEDD017E0FFF799FC8246DBF8000025
:1020D00010F0020F0FD0FFF791FCA0EB0A0141F2C4
:1020E0008830814202D90320BDE8F88FDBF8000078
:1020F00010F0020FEFD1B8F1010F04D1324801689E
:1021000021F080510160A069F0B32C4909684FF0BB
:10211000FF3801F00C01082966D0022810D0C7F85A
:102120006090FFF76BFC0446286810F0007F2BD00E
:10213000FFF764FC001B022851D90320BDE8F88F8B
:10214000C7F86090FFF75AFC8146286810F0007FBE
:102150000CD0FFF753FCA0EB0900022802D90320A2
:10216000BDE8F88F286810F0007FF2D1216AE0699D
:10217000A26A0843616A08EB5202890141EA0241FE
:10218000084394F82C1000E055E040EA016030600C
:1021900001203866FFF732FC0446286810F0007F03
:1021A00049D1FFF72BFC001B022813D90320BDE8FF
:1021B000F88F00000438024000004742083802400F
:1021C000800E4742743802404038024000700040A0
:1021D00070380240286810F0007FE2D02BE02868B9
:1021E00010F0007FA4D126E0012822D03068E269F7
:1021F00000F4800191421AD1226A00F03F0191421D
:1022000015D147F6C071626A0140B1EB821F0ED151
:10221000A26A00F4403108EB5202B1EB024F06D142
:1022200094F82C1000F07060B0EB016F03D0012027
:10223000BDE70120BBE70020B9E70000401EB0F178
:10224000807F01D3012070474FF0E0214861044AAC
:10225000F02010700020886107200861002070477E
:1022600023ED00E070B505460C46074802F00FF874
:1022700020B922460549044802F033F8802103487A
:10228000FDF7EAFF70BD0000E006002060060020B8
:102290007047000070B504462068006800F0100028
:1022A00010287BD12068066820684668761CE06BA1
:1022B00000684F49884201D120205CE0E06B006853
:1022C0004C49884201D1202055E0E06B0068484924
:1022D0006031884201D120204DE0E06B0068454923
:1022E0006031884201D1202045E0E06B0068404920
:1022F0001831884201D1C0143DE0E06B00683D49CF
:102300001831884201D1C01435E0E06B00683849CB
:102310007831884201D1C0142DE0E06B0068354966
:102320007831884201D1C01425E0E06B0068304963
:102330003031884202D14FF400101CE0E06B00689D
:102340002C493031884202D14FF4001013E0E06B89
:10235000006827499031884202D14FF400100AE00A
:10236000E06B006823499031884202D14FF400109D
:1023700001E04FF000600546E06B0068006820F067
:102380000100E16B09680860E06B00681949483199
:10239000884204D91748001F056017E022E0E06B6F
:1023A00000681349A831884203D9124808380560EB
:1023B0000CE0E06B00680E494831884203D90C48B4
:1023C0001038C56002E00A4810388560A08DE16BC6
:1023D00009684860E06B0068006840F00100E16B4C
:1023E000096808600448A16AFEF7FEF970BD0000A4
:1023F000106002401064024064050020F8B50446F5
:1024000022681068D168536900F00F0CBCF1000F0E
:102410000AD110F0200F07D011F0200F04D0204671
:10242000BDE8F84001F004B80025BCF1000F75D0FC
:1024300003F0010C01F490765CEA06066ED010F011
:10244000010F06D011F4807F03D0626C42F00102CC
:10245000626410F0040F06D013F0010F03D0626C19
:1024600042F00202626410F0020F06D013F0010F76
:1024700003D0626C42F00402626410F0080F08D0CE
:1024800001F0200252EA0C0203D0626C42F0080212
:102490006264626C002A35D010F0200F05D011F074
:1024A000200F02D0204600F0C3FF20684069C0F32F
:1024B0008010616C11F0080F00D148B3204600F085
:1024C00031FF2068406910F0400F1CD020681430A4
:1024D00050E8001F21F0400140E80012002AF5D129
:1024E000E06B60B15E490165E06BFEF79AFF002882
:1024F00008D0E06B016D01B0BDE8F0400847204610
:10250000FFF7C6FEF8BD2046FFF7C2FEF8BD05E0A6
:10251000FFE72046FFF7BCFE6564F8BD236B012B87
:102520007ED110F0100F7BD011F0100F78D0106812
:102530005068009050694FF0200310F0400F4FF0AA
:10254000020644D0E16B0868406880B20028E4D0FD
:10255000A28D8242E1D9E085C869B0F5807F2DD097
:1025600020680C3050E8001F21F4807140E8001210
:10257000002AF5D12068143050E8001F21F0010135
:1025800040E80012002AF5D12068143050E8001FFE
:1025900021F0400140E80012002AF5D184F84230D1
:1025A000256320680C3050E8001F21F0100140E83E
:1025B0000012002AF5D1E06BFEF7E2FE6663A08D03
:1025C000E18D401A81B22046FFF74CFEF8BDA08D88
:1025D000E18D401A81B2E08D0028F7D00029F5D0B6
:1025E00020680C3050E8002F22F4907240E8002C54
:1025F000BCF1000FF4D12068143050E8002F22F015
:10260000010240E8002CBCF1000FF4D184F8423004
:10261000256320680C3050E8002F22F0100200E003
:1026200008E040E80023002BF3D166632046FFF763
:1026300019FEF8BD10F0800F07D011F0800F04D004
:102640002046BDE8F84000F0D7BF10F0400FF0D0B2
:1026500011F0400FEDD02046BDE8F84000F089BEF3
:102660001533000870B50446002C04D094F84100DE
:10267000002510B106E0012070BD84F840502046CE
:1026800000F024F8242084F841002068C16821F477
:102690000051C160204600F031FF2068016921F43B
:1026A000904101612068416921F02A01416120685F
:1026B000C16841F40051C1606564202084F8410084
:1026C00084F842006563002070BD000010B586B03C
:1026D0000446142101A8FDF7BFFD5D49206888422A
:1026E00055D100BF002000905A48006840F010000B
:1026F000584908600846006800F01000009000BFCC
:1027000000BF00BF0020009052481438006840F01D
:1027100002005049143908600846006800F00200C1
:10272000009000BF00BFC020019002200290002056
:102730000390032004900720059001A94648FFF765
:1027400029F84648464908604FF00060486000217B
:1027500043488160C1604FF48061016100214161A3
:102760008161C16101624162FEF764FF08B1FEF759
:1027700027F900BF3A48E063846300BF0022114696
:102780002520FFF7B7F92520FFF7A6F95EE03549C8
:10279000206888425AD100BF002000902D48001FB9
:1027A000006840F400302B49091F086008460068A3
:1027B00000F40030009000BF00BF00BF0020009078
:1027C00024481438006840F0080022491439086091
:1027D0000846006800F00800009000BF00BF6020BD
:1027E0000190022002900020039003200490072013
:1027F000059001A91C48FEF7CDFF1C481C49086044
:102800004FF0006048604021194881600021C1609C
:102810004FF480610161002141618161C1614FF428
:102820000031016200214162FEF704FF08B1FEF7AA
:10283000C7F800BF0E48A063846300BF00221146A2
:102840002620FFF757F92620FFF746F906B010BDFE
:10285000001001404438024000040240406402403D
:102860003401002000440040000C0240A0600240FF
:102870009401002070B504460D4616462068C068D5
:1028800040F010002168C86032462946204600F01A
:102890007DFD70BD70472DE9F84304460E46154690
:1028A0001F4694F84100202802D00220BDE8F8839A
:1028B0007EB175B100206064212084F84100FFF7EB
:1028C0009DF88146A584E584A068B0F5805F03D0BB
:1028D00004E00120BDE8F883206990B13546002668
:1028E000E08C4FF02008C8B14B46002280212046E2
:1028F000009700F0B0FE30B184F841800320BDE8BD
:10290000F8830025ECE7B5B12168287848606D1C94
:10291000E08C401EE084E08C0028E5D14B4600228C
:1029200040212046009700F096FE58B184F841807F
:102930000320BDE8F88330882168C0F308004860B0
:10294000B61CE5E784F841800020BDE8F8837047B5
:1029500000BFFEE72DE9F0412DED088BB0EE408A77
:1029600006460D461446BDEEC80A10EE100A801B3E
:1029700007B2AF423DDD94ED000AB4EEC80AF1EEB5
:1029800010FA36D2D4ED000A00EE105AB8EEC00AA2
:1029900030EE800A84ED000A18EE100AFDF767FC9D
:1029A00041EC1B0BB0EE4B0AF0EE6B0A00F0BCFEE4
:1029B000B0EE409AF0EE609A94ED000A10EE101A14
:1029C0000846FDF754FC41EC1B0BB0EE4B0AF0EE51
:1029D0006B0A00F0A9FEB0EE40AAF0EE60AA53EC3C
:1029E000192B51EC1A0BFDF76DFC45D884ED008ACC
:1029F00042E0684287423DDA94ED000AB4EEC80A2C
:102A0000F1EE10FA36DDD4ED000A00EE105AB8EE01
:102A1000C00A30EEC00A84ED000A18EE100AFDF775
:102A200026FC41EC1B0BB0EE4B0AF0EE6B0A00F0FB
:102A30007BFEB0EE40AAF0EE60AA94ED000A10EE24
:102A4000101A0846FDF713FC41EC1B0BB0EE4B0AC5
:102A5000F0EE6B0A00F068FEB0EE409AF0EE609A7D
:102A600053EC1A2B51EC190BFDF714FC04D884ED30
:102A7000008A01E084ED008ABDEC088BBDE8F0819E
:102A800010B50E480E4908600320486000210C482C
:102A90008160C1604FF4002101614FF44011416138
:102AA0000021017641768176C17601774177FEF784
:102AB0007EFA08B1FDF784FF10BD000000640040FD
:102AC0005400002010B50E480E49086003204860ED
:102AD00000210C488160C1604FF4002101614FF476
:102AE000401141610021017641768176C1760177FE
:102AF0004177FEF75CFA08B1FDF762FF10BD0000F8
:102B0000006800407C00002008B500BF0020009055
:102B10001648006840F480001449086008460068C0
:102B200000F48000009000BF00BF00BF00200090B4
:102B30000846006840F4001008600846006800F489
:102B40000010009000BF00BF002211461120FEF7C8
:102B5000D1FF1120FEF7C0FF002211463A20FEF7F8
:102B6000C9FF3A20FEF7B8FF08BD00003038024028
:102B700000B587B0142102A8FDF76EFB00BF00204E
:102B800001907548006840F00100734908600846EC
:102B9000006800F00100019000BF00BF00BF0020EE
:102BA00001900846006840F0100008600846006880
:102BB00000F01000019000BF00BF00BF0020019096
:102BC0000846006840F0020008600846006800F00F
:102BD0000200019000BF00BF00BF00200190084626
:102BE000006840F0080008600846006800F008002F
:102BF000019000BF00BF00BF0020019008460068A0
:102C000040F4807008600846006800F4807001900D
:102C100000BF00BF00BF002001900846006840F0E0
:102C2000800008600846006800F08000019000BF46
:102C300000BF00BF002001900846006840F040003F
:102C400008600846006800F04000019000BF00BF27
:102C500000BF002001900846006840F02000086096
:102C60000846006800F02000019000BF00BF00226D
:102C70004FF403613948FEF7BAFE01221146384885
:102C8000FEF7B5FE00223C213648FEF7B0FE0022DA
:102C900002213548FEF7ABFE00224FF48041334855
:102CA000FEF7A5FE30200290012003900220049040
:102CB0000020059002A92948FEF76CFD0120029032
:102CC000039000200490059002A92548FEF762FDBC
:102CD0003C2002900120039000200490059002A95E
:102CE0002048FEF757FD0420029000200390049036
:102CF00002A91F48FEF74EFD02200290012003901A
:102D000000200490059002A91748FEF743FD022019
:102D10000290002003900220049002A91548FEF7BB
:102D200039FD4FF4006002900120039000200490D0
:102D3000059002A90948FEF72DFD4FF4804002904E
:102D40000120039000200490059002A90748FEF797
:102D500021FD07B000BD00003038024000100240E5
:102D600000200240001C02400018024000140240F3
:102D7000000402400000024010B50B480B490860F7
:102D80000B484860002109488160C1604FF48061B0
:102D900001610C21416100218161C161FFF762FC89
:102DA00008B1FDF70DFE10BD00100140A400002089
:102DB000A086010010B50B480B4908604FF4E130C4
:102DC0004860002108488160C16001610C214161B7
:102DD00000218161C161FFF745FC08B1FDF7F0FDFD
:102DE00010BD000000440040EC00002000BFFEE7E2
:102DF00000B97047017080ED010AC0ED020A80ED54
:102E0000031AC0ED041A80ED052AC0ED082A00BFA0
:102E1000EFE7000010B52DED0A8B0446B0EE408AB6
:102E2000F0EE608A24B99FEDC20ABDEC0A8B10BD9A
:102E3000B7EE009AF7EE009A94ED0E0A84ED0F0AB1
:102E400094ED0D0A84ED0E0A84ED068AC4ED078A1E
:102E500038EEC80A84ED0D0A19EE100AFDF707FADC
:102E600041EC1A0B94ED0D0A10EE101A0846FDF70E
:102E7000FEF941EC1C0BB0EE4C0AF0EE6C0A00F0CF
:102E800053FCB0EE40BAF0EE60BA53EC1A2B51ECA2
:102E90001B0BFDF7FFF903D29FEDA50A84ED0D0A88
:102EA00094ED080A10EE101A0846FDF7E0F941EC1F
:102EB0001A0B94ED070A10EE101A0846FDF7D7F921
:102EC00041EC1C0BB0EE4C0AF0EE6C0A00F02CFC4E
:102ED000B0EE40BAF0EE60BA53EC1A2B51EC1B0B7B
:102EE000FDF7F0F906D394ED080AB5EEC00AF1EE4D
:102EF00010FA76D12078022859D194ED0D0AD4ED3C
:102F00000E0A30EE600AD4ED010A20EE200A84EDAC
:102F1000090A94ED020AD4ED0D0A20EE200A84ED90
:102F20000A0A94ED0D0AD4ED0E0AB0EE001A01EE75
:102F3000600AD4ED0F0A30EE200A84ED0C0A94EDFD
:102F4000030AD4ED0C0A20EE200A84ED0B0A94ED5E
:102F5000090AD4ED0A0A30EE200AD4ED0B0A30EE4D
:102F6000200AD4ED110A30EE200A84ED110A94ED06
:102F7000110AD4ED050AB4EEE00AF1EE10FA04DD10
:102F800094ED050A84ED110AAAE094ED110AD4ED3E
:102F9000050AF1EE600AB4EEE00AF1EE10FA05D28D
:102FA00094ED050AB1EE400A84ED110A98E020780C
:102FB00010B1207801287CD12078012823D194ED0C
:102FC0000D0ADFED5C0AB4EEE00AF1EE10FA09DD5D
:102FD00094ED0D0ADFED580A30EE600A84ED0D0A1B
:102FE00011E079E094ED0D0ADFED540AB4EEE00A49
:102FF000F1EE10FA07D294ED0D0ADFED4F0A30EE34
:10300000200A84ED0D0A94ED010AD4ED0D0A20EE9C
:10301000200A84ED090A94ED0A0AD4ED020A94ED1F
:103020000D1A00EE810A84ED0A0A94ED0D0AD4ED22
:103030000E0A30EE600AD4ED030A20EE200A84ED79
:103040000B0A94ED0A0AD4ED040AB4EEE00AF1EE9C
:1030500010FA04DD94ED040A84ED0A0A10E094ED00
:103060000A0AD4ED040AF1EE600AB4EEE00AF1EEC9
:1030700010FA05D294ED040AB1EE400A84ED0A0A72
:1030800094ED090AD4ED0A0A30EE200AD4ED0B0AB9
:1030900030EE200A84ED110A94ED110AD4ED050AF0
:1030A000B4EEE00AF1EE10FA04DD94ED050A84EDC9
:1030B000110A15E094ED110AD4ED050AF1EE600A4B
:1030C000B4EEE00AF1EE10FA0AD294ED050AB1EE80
:1030D000400A84ED110A03E09FED150A84ED110A00
:1030E00019EE900AFDF7C3F841EC1A0B94ED110AA2
:1030F00010EE101A0846FDF7BAF841EC1C0BB0EEC2
:103100004C0AF0EE6C0A00F00FFBB0EE40BAF0EEA5
:1031100060BA53EC1A2B51EC1B0BFDF7BBF803D232
:103120009FED030A84ED110A94ED110A7DE600007B
:10313000000000000000804500000046000080C53F
:10314000028942814A780B7842EA032212B2028154
:10315000CA788B7842EA032212B202804A790B794C
:1031600042EA032212B242808A798271B0F90820C1
:10317000B0F90A30D21AB2F5805F03DDC268521E80
:10318000C2600AE0B0F90820B0F90A30D21A12F58C
:10319000805F02DAC268521CC260B0F90830C268AF
:1031A00003EB42320261704700BFFEE700B5DFED7E
:1031B000082A9FED082ADFED081AB1EE041ADFEDA8
:1031C000070A9FED070A02210648FFF711FE00BD1E
:1031D0000000C842000080460000FA4514AE273FB8
:1031E0001B2F174144040020704770472DE9F84316
:1031F00081460E4614461D46DDE908870F480660E5
:1032000000200E498860C86008200861200A0C4927
:1032100008704C70280A8870CD704FEA1820087129
:1032200081F80580380A8871CF716B460A460349D8
:103230004846FDF7DAFBBDE8F88300000C030020E8
:103240001800002010B5FEF7DFFB10BD00B593B0ED
:10325000302107A8FDF700F8142102A8FCF7FCFFB5
:1032600000BF002001902448006840F080502249AF
:1032700008600846006800F08050019000BF00BF61
:1032800000BF002001901D48006840F440401B49E9
:1032900008600846006800F44040019000BF00BF8D
:1032A000012007900004089002200D9041050E9126
:1032B00006210F91A8211091022111910421129150
:1032C00007A8FEF779FD08B1FDF77AFB0F20029001
:1032D00002200390002004904FF4A05005904FF47A
:1032E00080500690052102A8FEF74AFC08B1FDF7C0
:1032F00067FB13B000BD0000403802400070004082
:103300000348006840F470000149086070470000FD
:1033100088ED00E010B5806B0021C185C184FEF707
:10332000B7FF10BD01680C3151E8002F22F49072F4
:1033300041E80023002BF5D10168143151E8002F3A
:1033400022F0010241E80023002BF5D1016B012995
:1033500009D101680C3151E8002F22F0100241E838
:103360000023002BF5D1202180F8421000210163B9
:10337000704710B50168CA6822F04002CA60202177
:1033800080F84110FFF7E3FA002010BD77B581B057
:103390000446154694F84200202847D1029800B10F
:1033A00015B9012004B070BD00BF94F84000012899
:1033B00001D10220F6E7012084F8400000BF029806
:1033C000A062A58500206064222084F842000020CD
:1033D000E16B086502AE32682368191D2B46E06B6D
:1033E000FEF79EF900BF0020009020680068009062
:1033F00020684068009000BF00BF00BF002084F834
:10340000400000BF2068C06840F480702168C86038
:103410002068406940F001002168486120684069E7
:1034200040F04000216848610020BBE70220B9E776
:1034300008B590F84210222901D0022008BD826808
:10344000B2F5805F01D1016929B1816AB2F5805F6F
:103450001DD052B10BE0816A02685268C2F30802C3
:103460000A80816A891C816209E002697AB1026876
:10347000526802F07F020A70816A491C8162C18D24
:10348000491E0904090CC18505D0002008BD026849
:1034900052680A70F0E70168CA6822F02002CA6028
:1034A0000168CA6822F48072CA6001684A6922F021
:1034B00001024A61202180F8421000214163026B21
:1034C000012A03D0FFF7E6F9002008BD0163016877
:1034D0000C3151E8002F22F0100241E80023002BAC
:1034E000F5D101680A6812F0100F02D00A68496825
:1034F0000091818DFEF7B6FEE6E700002DE9F04170
:10350000044620680169E26821F4405111430161D9
:103510002169A068E2690843616911430143206899
:10352000C26822F4037222F414421143C16020687D
:103530004169A26921F44071114341612068A0F101
:103540008041B1F588312ED0A0F18041B1F58A31AA
:1035500029D0FEF7D9FB8446E16900201927254DC3
:103560003226B1F5004F22D06068830F8200ACFB99
:103570000701FCF739FE0146A5FB002040097A420D
:10358000424301EB820106EB0111A5FB0121490930
:1035900001F0F00202EB001001F00F010844216875
:1035A0008860BDE8F081FEF7BFFB8446D4E7616820
:1035B0004A1840EB0003ACFB0701FCF715FE03467D
:1035C000A5FB0010410918460A016FF01803594382
:1035D00000EB810006EBC000A5FB0010400900F0E5
:1035E000F80102EB410100F00700084421688860FF
:1035F000BDE8F0811F85EB5190F84110212901D0E1
:10360000022070478168B1F5805F01D1016961B125
:10361000016A4A1C0262026809785160C18C491E25
:103620000904090CC1840AD013E0016A0268098800
:10363000C1F308015160016A891C0162EEE701686B
:10364000CA6822F08002CA600068C16841F0400187
:10365000C160002070472DE9F8430446089E0D46DE
:10366000174698462068006835EA000028D00020F8
:10367000B84232D1B6F1FF3F27D0FEF7BFF9A0EB39
:103680000800B0421ED8EEB12068C16811F0040FE6
:103690001BD0802D19D0402D17D0016811F0080FD4
:1036A00013D0002521680968406800902046FFF784
:1036B00039FE0820606484F840500120BDE8F8839A
:1036C0000120D5E70320BDE8F8832068006835EACB
:1036D000000005D00020B842CCD00020BDE8F8831F
:1036E0000120F8E700B50248FEF7D4FD00BD000058
:1036F000A400002010B50248FEF780FE10BD0000B7
:10370000EC00002000BFFEE70FB4054B10B503A985
:10371000044A029800F0E4F810BC5DF814FB0000C5
:1037200045400008500000202DED020B019820F0CC
:10373000004001909DED000B02B0704702E008C808
:10374000121F08C1002AFAD170477047002001E01B
:1037500001C1121F002AFBD1704700002DE9FF5F55
:1037600082B00021DDE90430020DDDF840B00343F2
:1037700018D044F61050A2F2FF32424315141198AB
:1037800001281FD0A5EB0B00401C5FEA000A4FF098
:1037900000064E4FDFF83891B046504615D5CAF1B5
:1037A000000413E0119801244AA3012801D16FEA13
:1037B0000B010298119AC0E90031C0E9024206B03B
:1037C000BDE8F09FCBF10000DFE704460021404A4E
:1037D000491842EB0450CDE9001012E0E00707D091
:1037E00032463B4640464946FCF760FE80468946E5
:1037F00032463B4610461946FCF758FE06460F4631
:103800006410002CEAD1DDE90401DDE90023BAF1FE
:10381000000F06DAFCF74AFE42464B46FCF746FE2E
:1038200005E0FCF7B5FE42464B46FCF7B1FE044608
:103830000E460022284BFCF745FD03D84FF0FF3021
:10384000014607E00022254B20463146FCF787FD64
:10385000FCF70DFF102409E0002C0ADB0A220023EC
:10386000FCF7C2FC039B30321A55641E50EA010279
:10387000F2D1641C039AC4F111031444119A012A71
:1038800003D0012208430DD10AE0084304D00020F0
:103890004FF0110B119072E7A3EB0B056D1E0DE0BD
:1038A0005B4504DD4FF0000205F1010504E003DA99
:1038B0004FF00002A5F10105002AECD00298119901
:1038C000C0E90231C0E9004579E70000000014407A
:1038D0000000F03F300000000000F0430000E03F37
:1038E0002DE9FF4F95B09A46884606460025EEE141
:1038F000252877D100242746F94A0121039400E0C6
:10390000044316F8013F203B01FA03F01042F7D1BF
:1039100030782A2811D06FF02F033078A0F13002D0
:10392000092A16D8039A44F0020402EB820203EB40
:1039300042021044761C0390EFE758F8042B0392E0
:10394000002A03DA504244F40054039044F0020485
:10395000761C30782E2816D116F8010F44F0040496
:103960002A280DD06FF02F023078A0F13003092BF8
:1039700009D807EB870302EB4303C718761CF3E76C
:1039800058F8047B761C30786C280FD006DC4C2865
:1039900017D068280DD06A2814D104E0742810D0FC
:1039A0007A280FD10DE044F400140AE044F48014A6
:1039B00001E044F440147278824202D104F580148C
:1039C000761C761C307866280BD013DC582877D00C
:1039D00009DC002875D04528F6D04628F4D04728C1
:1039E0001AD193E118E0632835D0642879D065288E
:1039F00012D18BE1702873D008DC6728F1D06928D8
:103A00006FD06E280DD06F2806D1ACE073282CD073
:103A1000752874D0782853D05246179990476D1C5A
:103A200054E1C4F30250022809D003280DD0D8F87D
:103A3000001004280DD00D6008F1040846E1D8F804
:103A40000010EA17C1E90052F6E7D8F800100D801F
:103A5000F2E70D70F0E718F8041B8DF80010002055
:103A60008DF80100EB46012003E058F804BB4FF04D
:103A7000FF3061074FF0000102D40DE009F10101B0
:103A80008946B9420FDA8145F8DB1BF80910002995
:103A9000F4D108E009F1010189468142FADB1BF803
:103AA00009100029F6D103985346A0EB09072146D7
:103AB0003846179A00F080FA284400EB090507E021
:103AC00044E008E10DE01BF8010B524617999047BE
:103AD000B9F10109F7D2534621463846179AF2E068
:103AE00039E00A21C4F302524FF0000B0091022A80
:103AF00006D058F8040BC117032A09D00AE023E0C6
:103B000008F1070020F00702F2E80201904605E004
:103B100000B2C117042A01D140B2C117002906DA48
:103B20000A460021404261EB02012D2202E02205FB
:103B300004D52B228DF80420012203E0E20701D0F6
:103B40002022F7E7914657E00A2100E010214FF0CC
:103B5000000B00910BE010214FF0000B44F0040427
:103B60000827009103E008204FF0000B0090C4F3F9
:103B70000252022A05D058F8040B0021032A08D06B
:103B800008E008F1070020F00702F2E80201904681
:103B900003E080B2042A00D1C0B24FF0000922072E
:103BA0002AD53278702A07D0DDF800C08CF0100CCE
:103BB0005CEA0B0C05D00EE040228DF804200122B7
:103BC00008E050EA010306D030238DF804308DF868
:103BD000052002229146009B83F0080353EA0B0361
:103BE0000AD150EA010201D1620705D530228DF8D1
:103BF00004204FF001097F1E3278582A04D039A2E0
:103C00000C920CAA02920BE03BA2F9E75B46009AE9
:103C1000FCF7EAFA0C9B9B5C029A521E029213700C
:103C200050EA0102F2D1029804A9081A00F1200B0F
:103C3000600702D524F4803400E001275F4502DDEF
:103C4000A7EB0B0000E0002000EB0B0100900398B5
:103C50004944401A0390E00306D453462146179A7C
:103C6000039800F0A9F90544002706E001A8524690
:103C7000C05D179990476D1C7F1C4F45F6DBE00334
:103C80000CD553462146179A039800F095F9054440
:103C900004E030205246179990476D1C0099481E49
:103CA00000900029F5DC08E002980299524600785D
:103CB000491C0291179990476D1CBBF10001ABF1B3
:103CC000010BF1DC5BE100F065F90544761C30780E
:103CD00000287FF40DAE19B02846BDE8F08F000033
:103CE00009280100303132333435363738396162D2
:103CF0006364656600000000303132333435363796
:103D0000383941424344454600000000600700D472
:103D1000062708F1070020F00700F0E8022380469C
:103D200003F0004C5FEA0C0001D097A009E02005E9
:103D300001D596A005E0E00701D095A001E0AFF223
:103D40004C001390307823F0004365280CD006DC3B
:103D5000452809D046281DD047287FD13BE066285A
:103D600018D067287AD136E00021112F01DB11200D
:103D700000E0781CCDE9000104A90CA8FFF7EEFCD7
:103D8000DDE90D010C9A4FF0000B07F101091092CB
:103D900000914EE04FF000400097CDE9011004A9DA
:103DA0000CA8FFF7DBFCDDE90D020C9B0F994FF02F
:103DB000000B91461093009211B9791C00EB010998
:103DC000B7EB090003D4C0F1FF3B07F10109A9EBF0
:103DD0000700019042E0012F00DA01270021112F96
:103DE00001DD112000E03846CDE9000104A90CA84E
:103DF000FFF7B4FCDDE90D010C9A00914FF0000BC8
:103E0000B946109221070FD4009A4A4503DA914629
:103E100001E0A9F10109B9F1010F05DD109AA9F13D
:103E20000101515C3029F4D0B84202DA10F1040FDC
:103E300003DA0121CDE9011010E0002803DC8344FE
:103E4000A9EB000102E0411C494500DD8946A0EBD9
:103E50000B00401C01904FF000400290200705D459
:103E60000198484502DB4FF0FF30019000208DF8AB
:103E70004B0002980DF14B07B0F1004F25D0022006
:103E80000C902B200D90029800280CDA40420290F2
:103E90002D200D9007E00A210298FCF72BFA303113
:103EA000029007F8011D0C99481E0C900029F2DCC5
:103EB00002980028EFD1791E0D980870307800F034
:103EC000200040F0450007F8020D11A8C01BC01DDE
:103ED00002901398007800B1012000EB09010198CD
:103EE00001EBE071029801440398401A401E0390D0
:103EF000E00306D453462146179A039800F05CF875
:103F000005441398007818B15246179990476D1CD4
:103F1000E00323D553462146179A039800F04CF846
:103F200005441BE0BBF1000F07DB0098584504DD9A
:103F30001098179910F80B0001E01799302052469D
:103F4000904701980BF1010B401E05F1010501900E
:103F500004D12E205246179990476D1CB9F10001EB
:103F6000A9F10109DEDC05E017F8010B52461799AB
:103F700090476D1C0299481E02900029F4DC5346BC
:103F80002146179A03989EE62D0000002B000000A2
:103F9000200000002DE9F041044600251E4617468A
:103FA000880404D405E039462020B0476D1C641E07
:103FB000F9D52846BDE8F0812DE9F04104460025F9
:103FC0001E469046C80301D5302700E0202788040C
:103FD00004D505E041463846B0476D1C641EF9D54E
:103FE0002846BDE8F081000000B58BB001200990A3
:103FF000002007900120089000200190029003907B
:1040000004900690059001A90C48FCF767FD0B4849
:10401000FDF77DF902210948FCF7D5FC0E200A9036
:10402000069001A90648FCF759FD0548FDF76FF910
:1040300002210348FCF7C7FC0BB000BD5400002070
:104040007C00002013B50C460A2301226946024871
:10405000FEF721FC00981CBDEC00002010B500F01C
:1040600045F81A4908701A480078097848401749F5
:1040700009780840174908701548007813490978ED
:104080004840124909788843134908700F4800785E
:104090000F4908700F480078032815D10F4890ED9C
:1040A000000ADFED0F0A30EE200A80ED000A90EDE5
:1040B000000ADFED0C0AB4EEE00AF1EE10FA03DDBF
:1040C0009FED090A80ED000A10BD000040000020AD
:1040D0004100002042000020430000200400002096
:1040E00000007A4400409C450000000010B5002408
:1040F00001210E48FDF774FC012800D101240221A2
:104100000A48FDF76DFC012800D10224042107486C
:10411000FDF766FC012800D1032401210448FDF7C6
:104120005FFC012800D10424204610BD0004024099
:10413000000002402DED048B84B0FDF76DFCFFF70D
:1041400085F8FEF715FDFEF7DFFCFEF799FCFEF79C
:10415000B9FCFEF711FEFEF72DFE642238493948FE
:10416000FEF788FBFFF740FFFFF720F800F0DCF8D0
:104170004FF47A70FDF7FAFA3348B0F9001033A023
:10418000FFF7C2FA5BE000F0D5F834480078401C35
:10419000C0B23249087002280DDB2B49B1F900008A
:1041A0002F4A4FF4AF712F4B93ED000AFEF7D2FB6D
:1041B00000202A4908702448B0F9000000EE900A57
:1041C000F8EEE00AB0EE600A2548D0ED000A264875
:1041D000FEF720FEBDEEC00A10EE100A00B21A492A
:1041E00088800020009001900846B0F90420002348
:1041F0004FF400711D48FEF7F9FF19480068FCF7FD
:1042000036F841EC180B1048B0F9040000EE100A23
:10421000B8EEC00A10EE101A0846FCF728F841EC78
:10422000190B8DED028B0848B0F9000053EC192BE7
:1042300000900FA0FFF768FA0520FDF797FAA2E7B4
:104240007A050020A4000020F40100207B706C6F30
:10425000747465727D25640A000000000C00002063
:104260000800002004000020440400205400002026
:104270004F75743A25662C25642C25660A000000CB
:104280000146886A08B9012070470020FCE7014612
:10429000886A1E2801D1012070470020FCE730B554
:1042A00003460C461846FFF7EBFF10B14FF0FF3006
:1042B00030BD10E003F108005968405C04F8010BC0
:1042C0005868401C1E21B0FBF1F501FB1500586039
:1042D000986A401E9862101EA2F10102EAD100BF46
:1042E000E6E730B503460C461846FFF7D0FF10B19D
:1042F0004FF0FF3030BD10E014F8011B03F108004F
:104300001D6841551868401C1E21B0FBF1F501FBEA
:1043100015001860986A401C9862101EA2F10102F4
:10432000EAD100BFE6E700000220014908707047AB
:104330002400002070B5FDF761FB054600241BE05A
:1043400004EB44000F4901EB8000406804EB44019A
:104350000C4A02EB810189680844A8420AD804EBA0
:104360004400114601EB8000856004EB440152F8E3
:1043700021008047601CC4B2034800788442DFDB20
:1043800070BD0000280000202400002010B50A485D
:10439000FFF776FF00B110BD07480849826AFFF7B2
:1043A0007EFF064906A0FFF7AFF940210348FBF75F
:1043B00053FF00BFEFE70000E00600200C070020DD
:1043C0007B706C6F747465727D25730D0A0000003C
:1043D00000000000000000000102030406070809B5
:1043E000000000000102030400061016000610166B
:1043F0001044000800000020540000003C37000872
:1044000064440008540000203C0B00004C370008B6
:10441000000032000000FA4300000000000000002D
:10442000000000000024F400000000000000000074
:1044300000000000000000005D4000080A000000CD
:10444000000000008D4300080A000000000000008A
:10445000000000000100000010000000000000004B
:044460000000000058
:04000005080001AD41
:00000001FF
